{
  "contractName": "AuthBank",
  "abi": [
    {
      "anonymous": false,
      "inputs": [
        {
          "indexed": true,
          "internalType": "address",
          "name": "tokenAddress",
          "type": "address"
        },
        {
          "indexed": true,
          "internalType": "uint256",
          "name": "tokenId",
          "type": "uint256"
        },
        {
          "indexed": true,
          "internalType": "address",
          "name": "tokenOwner",
          "type": "address"
        }
      ],
      "name": "AuthCreated",
      "type": "event"
    },
    {
      "anonymous": false,
      "inputs": [
        {
          "indexed": true,
          "internalType": "address",
          "name": "tokenAddress",
          "type": "address"
        },
        {
          "indexed": true,
          "internalType": "uint256",
          "name": "tokenId",
          "type": "uint256"
        },
        {
          "indexed": true,
          "internalType": "address",
          "name": "tokenOwner",
          "type": "address"
        }
      ],
      "name": "AuthRevoked",
      "type": "event"
    },
    {
      "inputs": [
        {
          "internalType": "address",
          "name": "",
          "type": "address"
        },
        {
          "internalType": "uint256",
          "name": "",
          "type": "uint256"
        }
      ],
      "name": "auths",
      "outputs": [
        {
          "internalType": "address",
          "name": "tokenAddress",
          "type": "address"
        },
        {
          "internalType": "uint256",
          "name": "tokenId",
          "type": "uint256"
        },
        {
          "internalType": "uint256",
          "name": "expiration",
          "type": "uint256"
        },
        {
          "internalType": "bool",
          "name": "isAuth",
          "type": "bool"
        }
      ],
      "stateMutability": "view",
      "type": "function"
    },
    {
      "inputs": [
        {
          "internalType": "address",
          "name": "user",
          "type": "address"
        }
      ],
      "name": "userAuthCount",
      "outputs": [
        {
          "internalType": "uint256",
          "name": "",
          "type": "uint256"
        }
      ],
      "stateMutability": "view",
      "type": "function"
    },
    {
      "inputs": [
        {
          "internalType": "address",
          "name": "tokenAddress",
          "type": "address"
        },
        {
          "internalType": "uint256",
          "name": "tokenId",
          "type": "uint256"
        },
        {
          "internalType": "uint256",
          "name": "expiration",
          "type": "uint256"
        }
      ],
      "name": "createAuth",
      "outputs": [],
      "stateMutability": "nonpayable",
      "type": "function"
    },
    {
      "inputs": [
        {
          "internalType": "address",
          "name": "tokenAddress",
          "type": "address"
        },
        {
          "internalType": "uint256",
          "name": "tokenId",
          "type": "uint256"
        }
      ],
      "name": "revokeAuth",
      "outputs": [],
      "stateMutability": "nonpayable",
      "type": "function"
    },
    {
      "inputs": [
        {
          "internalType": "address",
          "name": "authBearer",
          "type": "address"
        },
        {
          "internalType": "address",
          "name": "tokenAddress",
          "type": "address"
        },
        {
          "internalType": "uint256",
          "name": "tokenId",
          "type": "uint256"
        }
      ],
      "name": "getTokenAuthIndex",
      "outputs": [
        {
          "internalType": "uint256",
          "name": "",
          "type": "uint256"
        }
      ],
      "stateMutability": "view",
      "type": "function"
    }
  ],
  "bytecode": "0x608060405234801561001057600080fd5b5061068b806100206000396000f3fe608060405234801561001057600080fd5b5060043610610073577c010000000000000000000000000000000000000000000000000000000060003504634b6ee9528114610078578063743b37ea1461008d578063861a17f1146100a0578063901fee131461011b578063e23c0d5714610152575b600080fd5b61008b610086366004610539565b610165565b005b61008b61009b36600461056e565b61033e565b6100ea6100ae36600461056e565b60006020818152928152604080822090935290815220805460018201546002830154600390930154600160a060020a0390921692909160ff1684565b60408051600160a060020a039095168552602085019390935291830152151560608201526080015b60405180910390f35b61014461012936600461059a565b600160a060020a031660009081526001602052604090205490565b604051908152602001610112565b6101446101603660046105b7565b610445565b6040517f6352211e000000000000000000000000000000000000000000000000000000008152600481018390523390600160a060020a03851690636352211e90602401602060405180830381865afa1580156101c5573d6000803e3d6000fd5b505050506040513d601f19601f820116820180604052508101906101e991906105f8565b600160a060020a03161461025e576040517f08c379a000000000000000000000000000000000000000000000000000000000815260206004820152601c60248201527f4175746842616e6b3a204e6f74206f776e6572206f6620746f6b656e0000000060448201526064015b60405180910390fd5b33600090815260016020526040902061027a9080546001019055565b60408051608081018252600160a060020a0385811680835260208084018781528486018781526001606087018181523360008181528087528a81208488528b82205482529096528986208951815473ffffffffffffffffffffffffffffffffffffffff1916991698909817885593519187019190915590516002860155516003909401805460ff19169415159490941790935593519293919286927fbe1b53bce83d2464cc0318f27d4df542be436e3e57e1d603e47727287a4139a691a450505050565b610349338383610445565b6000036103d8576040517f08c379a000000000000000000000000000000000000000000000000000000000815260206004820152602660248201527f4175746842616e6b3a204e6f204175746820666f756e6420666f72207468697360448201527f20746f6b656e00000000000000000000000000000000000000000000000000006064820152608401610255565b60006103e5338484610445565b33600081815260208181526040808320858452909152808220600301805460ff191690555192935090918491600160a060020a038716917fa98e79aab033378f4b94988ad0df39ca2862cf4c56b4b52119d762f2d2f3a8fa9190a4505050565b600060015b600160a060020a038516600090815260016020526040902054811161051457600160a060020a0385811660009081526020818152604080832085845290915290205481169085161480156104c15750600160a060020a03851660009081526020818152604080832084845290915290206001015483145b80156104f65750600160a060020a03851660009081526020818152604080832084845290915290206003015460ff1615156001145b1561050257905061051a565b8061050c81610615565b91505061044a565b50600090505b9392505050565b600160a060020a038116811461053657600080fd5b50565b60008060006060848603121561054e57600080fd5b833561055981610521565b95602085013595506040909401359392505050565b6000806040838503121561058157600080fd5b823561058c81610521565b946020939093013593505050565b6000602082840312156105ac57600080fd5b813561051a81610521565b6000806000606084860312156105cc57600080fd5b83356105d781610521565b925060208401356105e781610521565b929592945050506040919091013590565b60006020828403121561060a57600080fd5b815161051a81610521565b60006001820161064e577f4e487b7100000000000000000000000000000000000000000000000000000000600052601160045260246000fd5b506001019056fea264697066735822122065202c7c5c35532fe512b6852e1d9dad85d2572ff4185dae93c0d223f7baf0fb64736f6c63430008110033",
  "immutableReferences": {},
  "source": "// SPDX-License-Identifier: MIT\npragma solidity ^0.8.17;\n\nimport \"@openzeppelin/contracts/token/ERC721/IERC721.sol\";\nimport \"@openzeppelin/contracts/utils/Counters.sol\";\n\ncontract AuthBank {\n    using Counters for Counters.Counter;\n\n    struct Auth {\n        address tokenAddress;\n        uint256 tokenId;\n        uint256 expiration;\n        bool isAuth;\n    }\n\n    event AuthCreated(\n        address indexed tokenAddress,\n        uint256 indexed tokenId,\n        address indexed tokenOwner\n    );\n\n    event AuthRevoked(\n        address indexed tokenAddress,\n        uint256 indexed tokenId,\n        address indexed tokenOwner\n    );\n\n    mapping(address => mapping(uint256 => Auth)) public auths;\n    mapping(address => Counters.Counter) private _authCounters;\n\n    function userAuthCount(address user) public view returns (uint256) {\n        return _authCounters[user].current();\n    }\n\n    function createAuth(address tokenAddress, uint256 tokenId, uint256 expiration) external {\n        require(\n            IERC721(tokenAddress).ownerOf(tokenId) == msg.sender,\n            \"AuthBank: Not owner of token\"\n        );\n\n        _authCounters[msg.sender].increment();\n\n        Auth memory _newAuth = Auth({\n            tokenAddress: tokenAddress,\n            tokenId: tokenId,\n            expiration: expiration,\n            isAuth: true\n        });\n\n        auths[msg.sender][_authCounters[msg.sender].current()] = _newAuth;\n        emit AuthCreated(tokenAddress, tokenId, msg.sender);\n    }\n\n    function revokeAuth(address tokenAddress, uint256 tokenId) external {\n        require(\n            getTokenAuthIndex(msg.sender, tokenAddress, tokenId) != 0,\n            \"AuthBank: No Auth found for this token\"\n        );\n\n        uint256 authIndex = getTokenAuthIndex(msg.sender, tokenAddress, tokenId);\n\n        auths[msg.sender][authIndex].isAuth = false;\n        emit AuthRevoked(tokenAddress, tokenId, msg.sender);\n    }\n\n    function getTokenAuthIndex(address authBearer, address tokenAddress, uint256 tokenId)\n        public\n        view\n        returns (uint256)\n    {\n        for (uint256 i = 1; i <= _authCounters[authBearer].current(); i++) {\n            if (\n                auths[authBearer][i].tokenAddress == tokenAddress &&\n                auths[authBearer][i].tokenId == tokenId &&\n                auths[authBearer][i].isAuth == true\n            ) {\n                return i;\n            }\n        }\n        return 0;\n    }\n\n    function currentTime() private view returns (uint256) {\n        return block.timestamp;\n    }\n}\n",
  "sourcePath": "/home/menezes/Projects/metapp-blockchain-auth/contracts/AuthBank.sol",
  "compiler": {
    "name": "solc",
    "version": "0.8.17+commit.8df45f5f.Emscripten.clang"
  },
  "schemaVersion": "3.4.10",
  "updatedAt": "2022-11-02T14:59:18.244Z",
  "devdoc": {
    "kind": "dev",
    "methods": {},
    "version": 1
  },
  "userdoc": {
    "kind": "user",
    "methods": {},
    "version": 1
  }
}